:02000004C0D06A
:1000000070B58CB062B603F031FF0126214CFC21A3
:10001000204606F0F5FF06F009FE6D46284607F07B
:1000200007F9A88580B2102814D0002816D1684698
:1000300005F02CF80A9004F077F8002006F05AFB3F
:10004000012006F057FB01F019F903F0FBFE02F066
:100050007BF909E068460021818502E068460026B8
:1000600086850A9805F012F805F004F8694688427A
:1000700002D10A9805F00AF86846808D002806D15A
:10008000002EC4D102F0B4FC00200CB070BD03F00F
:1000900026FFC04680180020B0B598B068462024DE
:1000A000214601F0EFFA08A8214601F0CFFA10A886
:1000B000214601F0CBFA012001F00EFA4F2080001A
:1000C0001E49085803210140022913D108A8002421
:1000D0002022214603F0E5FE6846014600F014FEAA
:1000E00010A8015D6A46125D4A400255641C082C46
:1000F000F6D115E06C462025204621462A4600F020
:1001000037F908A80146224600F02AFC204621467D
:100110002A4600F02DF910A80146224600F020FCE6
:1001200010A82024214601F003FA08A8214601F076
:10013000FFF90920000318B0B0BDC04680190020A7
:10014000F0B581B014460E460546022B10D130465C
:10015000214600F007FE2046214600F0D5FD002094
:10016000295C225C4A402A54401C0828F8D114E03B
:100170002027204621463A4600F0FAF8304631461C
:10018000224600F009FE204621463A4600F0F0F8EB
:1001900028462946224600F0FFFD002001B0F0BDB0
:1001A000F0B599B001AE20243046214601F06AFA3C
:1001B00009AD2846214601F049FA11AF38462146DB
:1001C00001F044FA012001F087F94F2080000A492C
:1001D000085803230340384629463246FFF7B0FF4C
:1001E0003846214601F0A4F92846214601F0A0F93D
:1001F0000920000319B0F0BD8019002070B590B03F
:100200006D4620242846214601F03CFA012001F0E9
:1002100063F908AE3046294600F0A4FD3046214679
:1002200001F086F90920000310B070BDF0B591B05F
:10023000059303920C4608900122049290020790C5
:1002400020490D1811020691284604F087FD002769
:10025000009701972026284639462246334604F067
:100260005DFD0097019728463946039A334604F00E
:1002700055FD0097019728463946059A334604F004
:100280004DFD019609AC0094284604993A463B4638
:1002900004F044FD06200B49079A88542846069925
:1002A00004F05CFD00940196074928462246334637
:1002B00004F034FD10212046089A04F071FD11B0BD
:1002C000F0BDC046801900200180000080B50121EA
:1002D000090204F043FD80BD80B582B013460A4692
:1002E00000210091019104F019FD02B080BD80B59C
:1002F00082B020220091019201210022134604F0D5
:100300000DFD02B080BD0000F0B583B01C4615465F
:100310000E460870089F032803D1304604F012FDF2
:1003200004E001200102304604F018FD202000976F
:100330000190044930462A46234604F0EFFC03B0FE
:10034000F0BDC0460180000010B50022802908D30E
:100350000B4680240C438454D909521C9B0B0B463A
:10036000F7D18154501C10BD80B504F0EBFC80BD6A
:10037000F0B583B015460E4604464B20C0000C492C
:1003800006220A540F1801200102384604F0E6FC48
:100390002020009401900749384632462B4604F04D
:1003A000BDFC2046214600F007F803B0F0BDC04672
:1003B000801900200180000070B588B0044600203C
:1003C0001F220B5C8D5C6E463554B354521E401C8C
:1003D0001028F6D16846094A7A4420210B4604F0D9
:1003E0009DFD00201F216A46135C525C2254635419
:1003F000491E401C1028F6D108B070BD546F000093
:10040000F0B59DB00D4604464B20C000CE4F0621EE
:1004100039543E18012004900102304604F09EFC3D
:10042000202200940192C949304616462A46334696
:1004300004F074FC00201F21225C635C3D18AB7348
:100440007B189A73491E401C0F29F5D13D460E3585
:10045000BF4A7A440A9228463146334604F05EFD8C
:1004600000960B963E462E363046294607952A467C
:100470000A9D2B4604F030FD0B9800903046314623
:1004800032462B4604F008FD3D464E3508950021C6
:10049000284602910B9A03F004FD6D20049939540B
:1004A0000B980090284631462A460A9B04F0F4FC3B
:1004B0000B98009038466E30099029462A460A9DCE
:1004C0002B4604F009FD0B98009038468E300590BD
:1004D000A0497944039632462B4604F0FDFC0B9E5E
:1004E000009609980146059A2B4604F0D5FC009623
:1004F0000CAD28462030069009990A460A9E3346DC
:1005000004F0EAFC0B98009006980146099A3346DD
:1005100004F0E2FC0B980090284606990A46334600
:1005200004F0DAFC0B98009028462946099A3346D5
:1005300004F0D2FC0B98009028462946089A3346CE
:1005400004F0CAFC00960B980190834A7A4428462E
:1005500029460B9B04F0D0FC0B98009028462946B6
:10056000069A0A9B04F0B8FC0B9800903E46CE36E3
:1005700030462946089A0A9B04F0AEFC0B9800907E
:10058000059D28463146069632460A9E334604F0BB
:10059000A3FC0B980090099829460246334604F0C4
:1005A0009BFC0B9E0096284608AB0ECB04F084FC07
:1005B0003846AE30694979440A90324603F05BFC14
:1005C0002846314604F04AFC002802D0644A7A44A6
:1005D00011E00B9D0095634B7B440598089E3146C6
:1005E000099A04F059FC0598294604F037FC0028C4
:1005F00071D05D4A7A440B9800905C4D7D44069E14
:10060000304631462B4604F067FC0B98009030468C
:100610003146079A2B4604F05FFC0B9800900A982D
:100620000146039A2B4604F057FC029AED20385CF1
:1006300004990840824206D0534979442023069801
:10064000024604F019FC0B9E0096872040003818E3
:1006500005904E4D7D4409950A99089A2B4604F061
:100660001BFC0096EE3738460A99089A2B4604F090
:1006700023FC009606980146059E32462B4604F060
:100680002BFC079831462A460B9D2B4604F054FC60
:100690000CAE042030700095701C0A900699079AE1
:1006A000099B04F019FC0095304621303946079A21
:1006B000099B04F011FC41203146024604F0A2FBE4
:1006C00020460A992A4603F0D6FB2046214600F030
:1006D0005FF81DB0F0BD0B980090254A7A4425487C
:1006E00078440390099D28462946039B04F0F4FBB7
:1006F0000B980090059831462A46039B04F0DCFBDA
:1007000005980B9904F0AAFB002808D00B980090DC
:100710001B4A7A441B4B7B44069801460FE00B9D15
:100720000095154B7B4405983146099A1E4604F006
:10073000B3FB0095114A7A4406980146334604F00B
:10074000CBFB049A72E7C0468019002001800000AC
:10075000FA6E00009A6E0000006F0000D66D000077
:10076000FE6D0000746D0000B86D0000506D00005B
:10077000506D00006C6C0000286C0000B66C00002E
:10078000FA6C0000366C0000126D0000F86C00007E
:10079000F0B593B0019002AF022038707D1C202686
:1007A0002846324603F067FB41242046394622465C
:1007B00004F036FB0094204639463A463B4604F0A6
:1007C000FDFA0094204639463A463B4604F0F6FAD4
:1007D0000094204639463A463B4604F0EFFA20465C
:1007E0003946224604F00EFB01982946324603F0B2
:1007F00042FB13B0F0BDB0B50C460546084600F00C
:1008000005F82846214600F023F8B0BD70B58AB03F
:1008100004466D4628262846314604F071FA0B4AF4
:100820007A4420232846314604F078FB00201F211B
:100830006A4613181B7A5218127A22546354491EBE
:10084000401C0F29F4D10AB070BDC0460C6B0000EB
:10085000F0B59BB0044600201F220B5C8D5C02AEFD
:100860003554B354521E401C1028F6D10AAD0D4920
:10087000794441262846324603F0FDFA20270097A6
:1008800002AB30462946324604F0AAFA30462946E1
:10089000324604F0B7FA691C20463A4603F0EBFAF8
:1008A0001BB0F0BD046C000070B588B00C46054666
:1008B0006E463046114600F0F9F928462146324688
:1008C00000F0D8F808B070BDF0B58DB017460290B2
:1008D00003AC202520462A4603F0CDFA2034802F91
:1008E0000CD303A820300026394680223A43825593
:1008F000CF09761C890B3946F7D100E00026A755B1
:100900004B20C0000C4906220A540C180120010299
:10091000204604F023FA019503AD009521360749DE
:1009200020462A46334604F0F9F902982946FFF793
:1009300043FD0DB0F0BDC0468019002001800000CD
:1009400070B588B01C4605466E463046FFF7BCFFC2
:1009500028463146224600F003F808B070BD00007A
:10096000F0B591B0044600201F230D5CCE5C09AFAA
:100970003E54FD545B1E401C1028F6D100201F2160
:10098000135C555C01AE35547354491E401C10284D
:10099000F6D12020009009A901AA084B7B442046EB
:1009A00004F07AFA00201F21225C635C2354625415
:1009B000491E401C0F29F7D111B0F0BD906900000D
:1009C00070B588B01C4605466E463046FFF77CFF82
:1009D00030463146FFF73CFF28463146224600F0BC
:1009E00002F808B070BDF0B5A7B00292049016AF3F
:1009F000022001903870781C03902026324603F0C4
:100A00003AFA412420463946224604F009FA05AD57
:100A100001982870681C0299324603F02CFA20468F
:100A20002946224604F0FCF90094204639463A460D
:100A30002B4604F0C3F920463946224604F0E2F979
:100A400004980399324603F016FA27B0F0BD80B53A
:100A5000FFF7FEFE80BD70B588B0144605466E46B1
:100A60003046FFF7CDFC28463146224600F002F81A
:100A700008B070BDF0B59BB0019000201F23145C3E
:100A8000D55C02AE3554F4545B1E401C1028F6D1E0
:100A90000AAF022038707D1C20262846324603F01B
:100AA000EAF9412420463946224604F0B9F9009675
:100AB00002AB20463946224604F092F920463946D8
:100AC000224604F09FF901982946324603F0D3F9F3
:100AD0001BB0F0BD70B588B00C4605466E4630467A
:100AE00011461A46FFF7F0FE30463146FFF7B0FEDA
:100AF00028462146324600F003F808B070BD0000D9
:100B0000F0B5A7B00192039016AF02263E70781C94
:100B100002902022049203F0AEF941242046394687
:100B2000224604F07DF905AD2E706E1C3046019909
:100B3000049A03F0A0F920462946224604F070F9F1
:100B40000D49794430463246049E334604F094F908
:100B50000094204639463A462B4604F02FF92046A9
:100B60003946224604F04EF903980299324603F0C2
:100B700082F927B0F0BDC0460A680000B0B50A4649
:100B800004462D20C000084D2918204600F00EF81C
:100B900020462146FFF75CFE3520C0002A1820467B
:100BA0002146FFF720FFB0BD80190020F0B591B0BD
:100BB00004920391044605AD184979440827284654
:100BC0003A4603F058F92846083020260399324661
:100BD00003F051F92846283004993A4603F04BF9BE
:100BE0004B20C0000B4906220A540F1801200102B5
:100BF000384604F0B3F8009401960749302338468C
:100C00002A4604F08BF820462146FFF7D5FB11B0A9
:100C1000F0BDC0468019002001800000B2680000CD
:100C2000B0B50C46054608461146FFF7A7FF2D2034
:100C3000C00003490A1828462146FFF71BFFB0BD34
:100C400080190020F0B59BB0019000201F220B5CA2
:100C50008C5C02AD2C54AB54521E401C1028F6D1B3
:100C60000AAF022038707D1C0F497944202628469F
:100C7000324603F000F9412420463946224604F06A
:100C8000CFF8009602AB20463946224604F0A8F879
:100C900020463946224604F0B5F8019829463246E6
:100CA00003F0E9F81BB0F0BD4B680000F0B591B05F
:100CB000044600201F220B5C8D5C09AE3554B354F2
:100CC000521E401C1028F6D101AE002520273046C8
:100CD00029463A4603F0E5F80820F077009709A97D
:100CE000084B7B442046324604F0F6F81F20615D35
:100CF000225C62552154401E6D1C0F28F7D111B0A3
:100D0000F0BDC0464A660000F0B58DB00D460290B9
:100D100003AC13497944062720463A4603F0ABF862
:100D2000A01D20262946324603F0A5F84B20C0001E
:100D300009490F540D1801200102284604F00EF84D
:100D4000029800900196054926232846224603F082
:100D5000E5FF0DB0F0BDC046801900200180000005
:100D6000C167000070B58CB00E4604466D46094957
:100D700079440F22284603F07EF828460F302022BF
:100D8000314603F078F82F2220462946FFF7F0FA83
:100D90000CB070BD6C670000F0B591B00446002047
:100DA0001F230D5CCE5C09AF3E54FD545B1E401CFE
:100DB0001028F6D100201F21135C555C01AE35547C
:100DC0007354491E401C1028F6D12020009009A918
:100DD00001AA084B7B44204604F06EF800201F2136
:100DE000225C635C23546254491E401C0F29F7D1D6
:100DF00011B0F0BD58650000F0B591B00446002078
:100E00001F230D5CCE5C09AF3E54FD545B1E401C9D
:100E10001028F6D100201F21135C555C01AE35541B
:100E20007354491E401C1028F6D12020009009A9B7
:100E300001AA084B7B44204604F04EF800201F21F5
:100E4000225C635C23546254491E401C0F29F7D175
:100E500011B0F0BDF8640000F0B58FB008910646FF
:100E6000002502921046294601931A4603F019F80C
:100E700009AF3021162438460591224603F011F8B7
:100E800008997D75304608434FD0039509AD143558
:100E9000E04304900A24304608912246039F3B46D3
:100EA00005F070FF0790069122463B4605F08AFF49
:100EB000301A0599084328700498451916350920F9
:100EC000801B08998F41079E0699E3D3039E09ACC6
:100ED000611C0822204602F0CEFF2E202072049DC5
:100EE0002F4609A9C919CA7D7F1C302AF9D02E3A8C
:100EF00051425141CC1B09AA14320298AB18163347
:100F0000641E1278302A1A46F8D0019A551EAC4257
:100F10002A4600D8224609AB591AC919163102F0DF
:100F2000AAFFAC4204D8304603E005980299087045
:100F300001200FB0F0BDB0B5002407232146C25CEC
:100F40002502AA18240E090209195B1E5C1C14460E
:100F5000F5D31046B0BDF0B581B001460078020669
:100F60000026002A02D43746344614E04D1C0027E0
:100F70003C463E460097392C17D87F210840002177
:100F8000224605F0F3FE86194F41691CE41D2878BE
:100F900002060D46EFD47F22024000211046224671
:100FA00005F0E4FE8019794101E00098014601B0A6
:100FB000F0BDB0B514460D46FFF7CDFF2A462346D7
:100FC000FFF74AFFB0BD000080B5094988780222CA
:100FD0000243022A07D14A78FF2A02D0824202D174
:100FE00080BD487080BD3720400202F078FFC046C7
:100FF00080190020B0B5832084001F4D285DC007F4
:1010000037D0E8783F2811DD0246703A102A24D8FC
:1010100001219140B322D201114213D003F0C4FF49
:10102000AA2826D1285D800720D422E00146203955
:101030001E2904D801228A4010490A4216D10228EA
:1010400014D016E00F4A114210D10522114204D0EB
:1010500003F0AAFFAA2809D00BE0014640390C2969
:1010600005D801228A4006490A4200D0B0BDA02816
:10107000FCD0054802F033FF801900205701555578
:1010800055150000400401008569000010B5FFF708
:101090009BFFFFF7AFFF4F20840000F0D1FB7649A4
:1010A0000851C87841280CDD75281EDD7A2826DD18
:1010B0007D285EDD7E286BD080287DD101F02EFF5B
:1010C00010BD312808DC232825DC20283DDC02283F
:1010D00077D100F0ADF910BD392823DC352839DC93
:1010E000322873D100F067FF10BD492821DC452864
:1010F00044DC422800D08CE000F0F8FE10BD7728D8
:101100001EDC76284ED108794979014300D0B0E041
:1011100002F080F910BD272821DC24285BD100F0E3
:1011200079FE10BD3D281FDC3A2859D100F0BFFFE1
:1011300010BD6F2827DC4A2870D101F016F810BDC9
:10114000782834D1FEF7A8FF10BD21284DD100F03A
:10115000EBFC10BD36284DD100F066FF10BD2828ED
:101160004DD100F0CFFB10BD3E284DD100F0A0FEC8
:1011700010BD7B2857D101F02BF810BD46285ED159
:1011800000F0B3FF10BD70285ED101F07FFE10BDEE
:101190000879032860D002285BD0012869D101F0CA
:1011A00047FC10BD772860D1FFF728F810BD7A28DA
:1011B0005BD1FEF7F5FF10BDA02856D102F0A4F8D0
:1011C00010BD202851D100F0A7FD10BD34284CD10E
:1011D00000F00EFF10BD262847D100F0E3FD10BD42
:1011E0003C2842D100F046FE10BD22283DD100F03F
:1011F0002FFD10BD382838D100F038FF10BD302841
:1012000033D100F0C0FE10BD40282ED100F0A3FE67
:1012100010BD442829D100F086FE10BD4C2824D1F1
:1012200000F0BAFF10BD7C281FD10879032819D01F
:10123000022814D001281CD101F0A4FE10BD4828BA
:1012400013D100F074FF10BD72280ED101F07EFEA4
:1012500010BD01F04BFC10BD01F08AFC10BD01F087
:10126000E1FE10BD01F0E0FF10BD6D20000202F0B4
:1012700036FE6B20FAE7C0468019002010B50D4CF1
:1012800000210D4A204602F00CFE0C4803F0FCFC45
:101290000B497944082202F00DFE002802D00020FC
:1012A00000F010F8FF20607000F03CF8C0202070C3
:1012B00010BDC04680190020580800000087D0C02B
:1012C0005A620000F0B583B002AD2870124C20467F
:1012D00003F0DAFC0021114A03F004FD01AE4220C4
:1012E0003070204603F0D0FC0930012731463A46E1
:1012F00003F0F8FC204603F0C7FC083029463A46C4
:1013000003F0F0FC204603F0BFFC054979440822B5
:1013100003F0E8FC03B0F0BD0087D0C0520200002B
:10132000E0610000F0B599B00020189017903D489A
:1013300015900127F80716902C30149004A80090FF
:10134000212014A905220CAB03F010FE364803F04F
:101350009BFC407A212826D0039742285ED1292081
:10136000C000324D2C1800944B20C0002918029167
:1013700006270CAA202638463346FEF7C5FF20462E
:101380002146FFF719F82D20C0002D18009538468A
:10139000029922463346FEF7B7FF28462946FFF753
:1013A0000BF8039F18E0204C204603F06DFC01462B
:1013B0002D20C0001D4E30182A3120252A4602F06B
:1013C0005AFD204603F060FC01462920C000301879
:1013D0000A312A4602F04FFD3120C000134E30186A
:1013E0002D21C90074182146FFF732FA3520C000BC
:1013F00030182921C90075182946FFF729FA392024
:10140000C000301804A922462B46FEF70FFF8320A8
:101410008000315C3943315419B0F0BD69200002BD
:1014200002F05DFD672800800087D0C08019002091
:10143000F0B585B0204841890089441A0F2C37D275
:1014400001AD2846214600F001F9601C00270090FC
:101450002F542E2028551A4E7E44F459204603F06E
:1014600013FC05F0FFFE05460098854208D820468B
:1014700003F00AFC01A92A4602F01CFD002805D051
:101480003F1D142FE9D10D4802F029FD002000F086
:1014900023F8FFF7F3FE012000F0CAF8042000F063
:1014A000C7F8022000F0C4F80920000305B0F0BD21
:1014B0000248401C02F013FD801900203069000032
:1014C000FC60000003494A8912184A810A891018F1
:1014D000088170478019002080B501460648002227
:1014E00082818260002905D00E304B218A000021C4
:1014F00002F0D7FC80BDC04680190020B0B504467C
:101500000A4D28890119FF222E3291420AD2698997
:10151000421A69180E31081902F0ADFC2889001929
:101520002881B0BD0120400402F0D9FC80190020C0
:1015300070B50C4605460846FFF7E0FF054E70897A
:1015400030180E302946224602F095FC70890019A9
:10155000708170BD8019002070B58AB00B460246BC
:101560002024019402AD00957B208000094E3018A4
:10157000214603F001FC2046FFF7C0FF70893018B8
:101580000E302946224602F076FC708920307081A8
:101590000AB070BD8019002070B520291DD1044605
:1015A0002020FFF7ABFF0F4841890A180E320023B5
:1015B000E55C55266E40D6545B1C202BF8D12031BB
:1015C000418183229200825C920705D589B240183E
:1015D00012382021FFF7C0FF70BDD520C00102F0F6
:1015E0007EFCC0468019002010B504460420FFF799
:1015F00085FF0648418942185474230A1374230C4A
:10160000D373230E9373091D418110BD80190020EF
:1016100010B504460220FFF771FF044841894218C3
:10162000D473230A9373891C418110BD8019002053
:1016300010B504460120FFF761FF034841894218B5
:101640009473491C418110BD80190020B0B50C462F
:101650000B4D69892A89521AA2420BDB002805D05A
:1016600069180E31224602F006FC69890819688162
:101670002046B0BD67200002E1B2081802F02FFC3E
:101680008019002070B520292ED104461B4D688991
:101690002989091A83229600AA5D920704D41F297A
:1016A0000ADC174802F01BFC3F2920DD29180846F8
:1016B0000E302E3100F026F8002C0AD00020698967
:1016C00069180918897B55224A402254401C202859
:1016D000F5D16889014620316981A95D890701D565
:1016E00040306881202070BD034802F0F8FB0448B8
:1016F000203002F0F4FBC046826800008019002010
:101700002067000070B58AB00C460246202501957E
:1017100002AE00967B2080000849081829462B4617
:1017200003F02AFB304621462A4602F0C3FB00287C
:1017300001D10AB070BD024802F0D1FB801900202F
:101740001669000070B50446294E70893189091A5E
:101750001F294ADD35180E352749794420222846AD
:1017600002F0A8FB00280CD0254979442022284605
:1017700002F0A0FB00281CD020212046FFF782FFAA
:1017800031E070892030708183218900715C890784
:101790000DD580B23189091A1F2926DD31180E3185
:1017A00016487844FFF7AEFF7089203070812D20F5
:1017B00013E070892030708183218900715C890772
:1017C0000AD580B23189091A1F290EDD31180E3170
:1017D0000C487844FFF796FF2920C00031182022DA
:1017E000204602F048FB202070BD024802F077FB43
:1017F00080190020206700009A5D0000525D000003
:10180000AA5D0000425D0000B0B50B484189028925
:10181000521A032A0DDD4218537C147CD57B927B2F
:10182000091D418110062904081821024018C0181A
:10183000B0BD024802F053FB80190020046700008D
:1018400080B506494A890889904204D98818807B66
:10185000521C4A8180BD024802F041FB80190020E1
:1018600001670000B0B50446C0060FD4194D002032
:1018700068812A89FF2A29D229460E31164802F0AA
:10188000FAFA2989A0061CD4002001E010200021CA
:1018900002F058FD0F4C0020A060E0710E4908785E
:1018A000A0704878E07088782071C87860710A79F3
:1018B000A27120460E30491D02F0DDFAA079208188
:1018C00002E0202002F03EFD0020B0BD034802F0FF
:1018D00006FBC04680190020D8210020846A000041
:1018E00070B519254A26064C204603F0CDF980191B
:1018F0000021142203F0F6F914366D1EF4D170BDE8
:101900000087D0C0F0B589B0804C2079022800D182
:10191000CFE0012800D0E4E0FFF776FF0646FFF7AE
:1019200073FF8019069000D3EBE07948864200D916
:10193000E7E0411C06980191884200D9E1E070423D
:101940000390002000900146059602912920C000D6
:1019500020188900425C4B1CC35C1B029A188B1C2C
:10196000C35C1B04D218C91C405C00061518049502
:10197000284668490E4605F06DF9019941436F1AF2
:1019800007AD2F80C019314605F0EAF90E4669808F
:101990000498614905F05EF93018059E5D4905F02F
:1019A000DFF9A9800320029948430490009DB9B251
:1019B0008E422DD8069888422AD962894B20800011
:1019C000801AA7180E378E420AD2039A51183A7815
:1019D000521C801A00D588E0BF18491EF7D101E0DB
:1019E00000D089E03E78132E00D985E0B04200DCBB
:1019F00082E00498281814244443484803F044F92A
:101A000000194A30791C324603F06CF93F4C059EB0
:101A10006D1C032D03D0680007A90F5AC7E7029970
:101A2000491C082991D10120FFF756FD6379002B4D
:101A300057D000274A22394E1946059706970906BE
:101A40000599324F144610D00025304603F01CF99A
:101A50000019415D7B791A4606984243BA1852191B
:101A600091736D1C9D421946EFD322461432069C99
:101A7000641C182C2746E1D1D9B200291FD01820A8
:101A800048430021C943214C0E34264A7A44237826
:101A90002546CCB25C40A3002C46D358090A5940D5
:101AA0006C1C401EF3D1C843182105F059F90C46AF
:101AB00006E00020FFF710FDFFF712FF11E0002401
:101AC000164D284603F0E0F81549461814277C43C4
:101AD000284603F0D9F801194A3130463A4603F056
:101AE00001F90920000309B0F0BDFFF7F9FED52088
:101AF000C001401C02F0F3F9D520C001801C02F0A7
:101B0000EEF9D520C00102F0EAF9C04680190020A4
:101B1000590600005A060000A45728000087D0C0CC
:101B20002A020000DC5A0000F0B597B015AC082579
:101B300020462946FFF78AFD13A82946FFF786FDB0
:101B400000252846FFF7C8FC2078617809020818AC
:101B5000A17809044018E1780906461820796179CE
:101B600009020818A17909044018E1790906441806
:101B7000274637432F4A1079012801D1002F55D12C
:101B8000002F0DD00BA803A9154615AAFFF748F89A
:101B90002A462A482C50412040012E5052202DE048
:101BA0003120C00011180BA82026324602F063F93C
:101BB0003520C0001F49091803A8324602F05BF91E
:101BC0001C4A1079012818D102971B4816181E4F7D
:101BD0007F441E4C7C4413A8435D102B3A4600D32F
:101BE00022460321304602F053FEB61C6D1C082D20
:101BF000F1D15320029F0F4A00E051201049505468
:101C0000117913A80025012900D028460090781EDC
:101C100087410C4810180BA903AA3B4600F0F6FFB9
:101C2000284602F099F8284617B0F0BDD520C0012B
:101C300002F055F98019002028080000240800004F
:101C40001F08000084070000985D0000955D0000FB
:101C5000F0B599B02E480089DF2855D101AD202478
:101C600028462146FFF7F2FC09AE30462146FFF731
:101C7000EDFC11AF38462946FEF7EAFD30463946FD
:101C8000224602F017F900283AD1224802F0FCFF60
:101C90002A3001AD20242946224603F023F82846A5
:101CA0002146FFF7D3FC09AE30462146FFF7CEFCB4
:101CB00011AF38462946FEF7CBFD3046394622465D
:101CC00002F0F8F800281BD1124C204602F0DCFF8D
:101CD0000A3001A9202203F005F86D462120287062
:101CE000204602F0D1FF093001242946224602F0A5
:101CF000F9FF2046FFF7F0FB0920000319B0F0BD03
:101D0000D520C00102F0EBF86720000202F0E7F8EE
:101D1000801900200087D0C0F0B581B00120FFF706
:101D2000DBFB1E4F387902281DD0012831D131202C
:101D3000C0003C18202520462946FFF7F9FB352036
:101D4000C0003E1830462946FFF7F2FB7889002391
:101D5000009338180E302146324600F057FF5F20BE
:101D6000FFF7B0FB0BE05120800038580C49884247
:101D700008D12D20C00038182021FFF7D9FB0920F9
:101D8000040303E00024204601F008FD204601B0D2
:101D9000F0BD6B20000202F0A2F8C04680190020BE
:101DA000EFBE01C010B598B008A8FFF7CBFC10A893
:101DB0002021FFF74BFC1648017902290AD001299E
:101DC00006D000291FD1684608A9FEF740FE08E0AA
:101DD000312100E03521C90041186846202202F077
:101DE0004AF8684610A9202202F064F8044601204F
:101DF000FFF772FB604244412046FFF7F5FB0920E4
:101E0000000318B010BD6B20000202F068F8C04655
:101E10008019002070B59AB00020FFF75DFB2D20DF
:101E2000C000134E311809AC202520462A4602F086
:101E300022F82920C0003118204620302A4602F01E
:101E40001AF840208C21215401A800904B20C0009A
:101E50003118062041232246FEF756FA6720C000BB
:101E60003018C821FFF764FB092000031AB070BDC9
:101E700080190020F0B599B011AD202428462146E4
:101E8000FFF700FC09AE30462146FFF7FBFB0020C0
:101E9000FFF722FB01AF384629463246FEF760FDC8
:101EA00038462146FFF778FB0920000319B0F0BD42
:101EB000F0B599B011AD202428462146FFF7E2FB8A
:101EC00009AE30462146FFF7DDFB0020FFF704FB9B
:101ED00001AF384629463246FEF75EFF38462146B6
:101EE000FFF75AFB0920000319B0F0BDF0B599B017
:101EF00011AD202428462146FFF7A8FB09AE304645
:101F0000FFF720FC0020FFF7E7FA01AF384629462B
:101F10003246FEF7AFFD38462146FFF709FB0920A0
:101F2000000319B0F0BD70B590B008AD202428466C
:101F30002146FFF7A7FB0020FFF7CEFA6E4630469A
:101F40002946FEF785FC30462146FFF7F1FA0920C5
:101F5000000310B070BD70B590B00020FFF7BCFA60
:101F60006C4608AD20462946FEF745FC2026204653
:101F70003146FFF7DDFA28463146FFF70DFB092011
:101F8000000310B070BD70B590B008AD2024284695
:101F90002146FFF777FB0020FFF79EFA6E4630469A
:101FA0002946FEF755FC30462146FFF7C1FA0920C5
:101FB000000310B070BDF0B599B011AD20242846D3
:101FC0002146FFF743FB09AE3046FFF7BBFB00207D
:101FD000FFF782FA01AF384629463246FEF764FC25
:101FE00038462146FFF7D8FA0920000319B0F0BDA2
:101FF000F0B591B009AD202428462146FFF742FBF9
:10200000FFF702FC06460020FFF766FA01AF3846EC
:1020100029463246FEF758FC38462146FFF7BCFAFF
:102020000920000311B0F0BDF0B599B011AD202426
:1020300028462146FFF726FBFFF7E6FB009009AF95
:1020400038462146FFF702FB0020FFF745FA01AEB4
:1020500030462946009A3B46FEF7B2FC3046214600
:10206000FFF766FA0920000319B0F0BDF0B599B08A
:1020700011AD202428462146FFF704FBFFF7C4FBDF
:10208000009009AF3846FFF75DFB0020FFF724FA08
:1020900001AE30462946009A3B46FEF751FC3046D9
:1020A0002146FFF779FA0920000319B0F0BDF0B519
:1020B00099B011AD202428462146FFF7C7FA09AE92
:1020C00030462146FFF7DEFA0020FFF705FA01AFA0
:1020D000384629463246FEF7BEFC38462146FFF711
:1020E00027FA0920000319B0F0BDF0B599B011AD81
:1020F000202428462146FFF7A9FA09AE304621469A
:10210000FFF7C0FAFFF780FB00900020FFF7E4F92B
:1021100001AF384629463246009BFEF7DBFC3846C5
:102120002146FFF705FA0920000319B0F0BD70B58C
:1021300092B010AC08212046FFF788FA0020FFF784
:10214000CBF908AD6E46284631462246FEF768FDBB
:10215000202428462146FFF7EBF930462146FFF7B9
:10216000E7F90920000312B070BDB0B58AB008AC21
:1021700008212046FFF76AFA0120FFF7ADF96D4606
:1021800028462146FEF7FAFC20212846FFF7D0F921
:10219000092000030AB0B0BD70B592B00AAC204669
:1021A000FFF7D0FA08AD08212846FFF74FFA0020C4
:1021B000FFF792F96E46304621462A46FEF7F6FCB6
:1021C00020213046FFF7E8F90920000312B070BD66
:1021D000F0B5A7B0FFF718FB1FA8FFF7B3FA594FE8
:1021E000788900900024202520462946FFF72EFA02
:1021F0007889049020462946FFF728FA7E892046F0
:102200003C462946FFF722FAFFF7FEFA0390FFF754
:1022100017FB1EA908700E37FFF712FB0290FFF79D
:102220000FFB0006059003D016A8FFF78BFA03E01A
:1022300000202021FFF70AFA049838180190B819F5
:102240000490052085016059012817D1A078022843
:1022500014D1BD20C0003B490C182026204601990E
:102260003246FEF739F8204604993246FEF734F834
:102270001EA901222046334CFEF72EF805980028AF
:1022800008D0029800060BD00EA816AA0499FEF7F3
:10229000F1FB09E00EA80021202201F002FE03E07C
:1022A0000EA816A9FEF7D4FA1EA80078002809D0B7
:1022B000009839182D20C000221806A8FEF7F4FA5D
:1022C000039F0FE01FAA16A905980028104600D00A
:1022D000084602990906039F00D0024606A8019904
:1022E000FEF7E2FA1FA806A93A46FEF7EDFA605992
:1022F000012809D1A078022806D1BD20C0002018ED
:102300001FA92022FDF7E8FF16AE06A930463A467F
:10231000049BFEF755FB0020FFF7DEF81FA82024E2
:102320002146FFF739F930462146FFF701F90598B4
:10233000002803D00EA82021FFF7FAF80920000397
:1023400027B0F0BD80190020F0B58FB0012700261E
:1023500001960EA80199018002AD284604F068FF9D
:10236000A88585B2102D0DD0002D17D102A802F03E
:102370008DFE0C903046FFF775FAFEF787FE0EA92A
:10238000088033E002A8002787850C9802F07EFEC3
:102390000EA807800120FFF79FF827E0044602A857
:1023A000002181850C9802F071FE0F200603264063
:1023B00000F038FD0920000386420ED0FF20000205
:1023C0002146014019208002814206D00120FFF7FA
:1023D00083F803204003864202D10EA8048005E062
:1023E0002846FFF701F90EA80F49018002F042FECE
:1023F00002A9884202D10C9802F048FE0EA800887B
:10240000002805D00EA80088FFF702F9002600E09A
:10241000102602A8808D002803D1002F99D10FB07B
:10242000F0BD01F05CFDC046426F0000F0B581B028
:1024300002F0BAFD0546F14C20780C2805DC052891
:102440005ED00C2800D118E203E10D2800D1B4E0E1
:102450000E2800D0FDE000956425E94F0120785555
:102460003E46643600247460304602F0A9FD042024
:1024700002F018FE7060692800D03FE101F06EFEA6
:1024800001F06EFEFC84042002F00CFEB866002809
:10249000009D00D1F1E1972800D1EEE1B86A002853
:1024A00000D1EAE1F88C2C21795C80B2884200D31B
:1024B000E3E102F0C3FD002800D0DEE102F04AFDB6
:1024C000AA2804D102F070FDAA2800D0D5E1B86A8C
:1024D000F98C49014018396B002902D0884700283F
:1024E00007D0012803D1B86AF98C4901401801F0DE
:1024F00027FAF88C401CF884B96A0029D3D1BCE1D2
:102500006420BF4F012139542E463D4664350020DA
:1025100000906860284602F053FD042002F0C2FDDE
:1025200068603546002800D1A7E1972800D1A4E1D2
:10253000692800D066E101F011FE01F011FE00985B
:10254000F884042002F0AEFDB866002800D194E1C2
:10255000972800D191E1B86A002800D18DE1F88C6C
:102560002C21795C80B2884200D386E102F066FDBE
:10257000002800D081E102F0EDFCAA2804D102F08D
:1025800013FDAA2800D078E1B86AF98C49014018F7
:10259000396B002902D08847002807D0012803D1D1
:1025A000B86AF98C4901401801F0CAF9F88C401C4E
:1025B000F884B96A0029D3D15FE16420FA4E012181
:1025C00031542F463546643500246C60284602F0AD
:1025D000F7FC042002F066FD68603D46002800D14B
:1025E0004BE1692800D159E1972800D145E1B06A53
:1025F000002800D1FEE0F08C2C21715C80B2884272
:1026000000D3F7E002F01AFD002800D0F2E002F05B
:10261000A1FCAA2804D102F0C7FCAA2800D0E9E056
:10262000B06AF18C49014018316B002902D088470B
:10263000002807D0012803D1B06AF18C4901401865
:1026400001F07EF9F08C401CF084B16A0029D3D1EE
:10265000D0E02F466420D44E0121315435466435F4
:1026600000246C60284602F0ABFC042002F01AFD46
:102670006860692800D08FE001F070FD01F070FD06
:10268000F484042002F00EFDB06600283D4600D11F
:10269000F3E0972800D1F0E0B06A002800D1ECE028
:1026A000F08C2C21715C80B2884200D3E5E002F00E
:1026B000C5FC002800D0E0E002F04CFCAA2804D1C0
:1026C00002F072FCAA2800D0D7E0B06AF18C490170
:1026D0004018316B002902D08847002807D0012814
:1026E00003D1B06AF18C4901401801F029F9F08C4E
:1026F000401CF084B16A0029D3D1BEE00246F86BD9
:10270000002810D06428014600D32946401AF863F7
:1027100009D1B96B0029164600D1FAE0386CF8638C
:10272000002088473246002A009D00D1A5E0972A64
:1027300000D1A2E0B86A002800D197E0F88C2C21E3
:10274000795C80B2884200D390E002F077FC0028E8
:1027500000D08BE002F0FEFBAA2804D102F024FC9A
:10276000AA2800D082E0B86AF98C49014018396B78
:10277000002902D08847002807D0012803D1B86A71
:10278000F98C4901401801F0DBF8F88C401CF88402
:10279000B96A0029D3D169E0B06A00283D4629D042
:1027A000F08C2C21715C80B2884223D202F046FC6E
:1027B00000281FD102F0CEFBAA2803D102F0F4FBBF
:1027C000AA2817D1B06AF18C49014018316B002951
:1027D00002D08847002807D0012803D1B06AF18CC5
:1027E0004901401801F0ACF8F08C401CF084B16A4B
:1027F0000029D6D12C20305CF18C3AE00018002062
:1028000080180020786B002803D0E178490801F097
:1028100043FDB86A002829D0F88C2C21795C80B25D
:10282000884223D202F00AFC00281FD102F092FB5A
:10283000AA2803D102F0B8FBAA2817D1B86AF98CEC
:1028400049014018396B002902D08847002807D079
:10285000012803D1B86AF98C4901401801F070F8D9
:10286000F88C401CF884B96A0029D6D12C20385C39
:10287000F98C814201D302F0E1FB02F0DFFB00287A
:1028800001D101F033FB02F08FFB854203D0AA286F
:1028900001D1FEF747FD012001B0F0BD01F05EFC63
:1028A00001F05EFCF484042002F0FCFBB06600281A
:1028B000E3D09728E1D0B06A0028DED0F08C2C213C
:1028C000715C80B28842D8D202F0B8FB0028D4D123
:1028D00002F040FBAA2803D102F066FBAA28CCD163
:1028E000B06AF18C49014018316B002902D0884749
:1028F000002807D0012803D1B06AF18C49014018A3
:1029000001F01EF8F08C401CF084B16A0029D6D189
:10291000B3E7002A009DB0D0972AAED001F01EFC8C
:1029200001F01EFCFC84042002F0BCFB3246B866B9
:10293000002800D1F7E6972800D1F4E6B86A00280D
:1029400000D1F0E6F88C2C21795C80B2884200D36B
:10295000E9E602F073FB3246002800D0E3E602F01D
:10296000F9FAAA2805D102F01FFB3246AA2800D0A6
:10297000D9E6B86AF98C49014018396B002902D0B0
:102980008847002807D0012803D1B86AF98C49018B
:10299000401800F0D5FFF88C401CF884B96A002973
:1029A0003246D0D1BFE6C04680180020B0B50546FB
:1029B000072028400024012812D0022812D1002923
:1029C00007D00A4802F02EFB280609D502F080F94C
:1029D00006E0FF2152310548002202F03BFB04468D
:1029E0002046B0BD022001F07AFAC046D82100206E
:1029F00010B58CB06C46204604F01AFCA08500048B
:102A000006D1684602F042FB0A90FF2002F0FEFA6F
:102A100002F030FB6946884202D10A9802F036FB88
:102A20006846808D002801D10CB010BD01F057FA26
:102A3000F0B5A1B02C4C208902280DD319A8202173
:102A4000FEF704FE4F208000205C400618D411A839
:102A50002021FEF717FE17E00120FEF73DFD09AC2F
:102A60002046FDF7D3FE20462146FDF7A5FC202198
:102A70002046FEF791FD01A82146FDF7E9FE2BE077
:102A800011A82021FEF7E2FD0120FEF725FD09AC8B
:102A90002046FDF7BBFE20462146FDF78DFC202594
:102AA00020462946FEF778FD01AE30462146FDF767
:102AB000CFFE30462946FEF73BFD19AF304639467A
:102AC0002246FDF7D7FF30462946FEF731FD11AA11
:102AD00030463946FDF7CEFF01A82021FEF728FD3C
:102AE0000920000321B0F0BD8019002070B590B01E
:102AF0001E4E707901280CD1012080023018FDF79C
:102B0000E5FBB520C000311808A8202201F0B3F978
:102B100003E008A82021FEF799FD01242046FEF7D6
:102B2000DBFCA002351808A920222846FDF7D4FBBB
:102B30004F208000305C000614D46C4628462146A5
:102B4000FDF7D5FB20462146FDF736FC2025204623
:102B50002946FEF7EDFCB920C000301821462A4670
:102B600001F089F90920000310B070BD8019002020
:102B7000F0B5A1B005208701234DE85901280BD0FD
:102B800002283DD119A820242146FEF75FFD11A897
:102B90002146FEF75BFD08E019A820242146FEF738
:102BA00071FD11A82146FEF76DFD0120FEF794FC92
:102BB000B920C000291809AC2046FDF7FDFB19AD6E
:102BC00028462946FDF7F8FB204621462A46FEF70F
:102BD00013F911AD28462946FDF7EEFB01AE30464C
:102BE00029462246FEF7D8F820213046FEF7A0FC01
:102BF0000548C059FEF7F8FC0920000321B0F0BDDC
:102C0000D520C00101F06BF980190020F0B599B012
:102C10001C4617460E4604903B4802F035F8007AF1
:102C20001E9D00280396029707D0022805D0012890
:102C300012D1002D09D038490EE0002D01D03349C2
:102C40000AE0002C05D0334906E0002C03D03449BB
:102C500002E02F4900E0314905AE3046FDF774FB34
:102C6000044636182027304602993A4601F003F907
:102C70002036304603993A4601F0FDF820464030B0
:102C8000002D07D005A908180822294601F0F3F8FD
:102C9000483400E00446B520C00022490D180095D4
:102CA0004B20C0000918062005AE32462346FDF72A
:102CB0002BFB30190422294601F0DDF8271D0721DE
:102CC0003846019108400290F80803900BD005ADFA
:102CD000049E039C08212846324600F025F808355A
:102CE0000B36641EF6D1029900290AD00198874359
:102CF00005A8C0190B23039A5343049AD21800F075
:102D000013F8002019B0F0BD0087D0C0673500006F
:102D100067280000682C00009E5100001D5B000029
:102D20001C64000080190020F0B585B009235C1AEE
:102D300000263346042C06DC022C0BDC012C13D0BD
:102D4000022C15D067E0062C09DC052C25D0062CBA
:102D50002AD060E0032C12D0042C17D05BE0072CA3
:102D600029D0082C2ED056E0441C007803022046BF
:102D700004781C43230E3502EE182302401C04780D
:102D80001C43230E3502EE182302401C04781C431A
:102D9000230E3502EE182302401C04781C43230E38
:102DA0003502EE182302401C04781C43230E350222
:102DB000EE182302401C04781C43230E3502EE1843
:102DC0002302401C05781D432846304323D0880049
:102DD0001249794408588018471E114878440190D8
:102DE0003A2431460496002628462246334603F00C
:102DF000C9FF039002912246334603F0E3FF281AED
:102E00000199085C38707F1E3920401B0498864168
:102E1000039D029EE4D305B0F0BDC046D64B000032
:102E2000904B000070B58D208000164E30180024A5
:102E3000202521462A4601F034F8852080003018EC
:102E400021462A4601F02DF87B20800030182946C3
:102E500001F056FF012080023018FDF737FA0A48CA
:102E60003018FDF781FABD20C0003018FDF77CFA5C
:102E700021200001345083208000315CFD220A4073
:102E8000325470BD801900207406000070B5FEF742
:102E9000BBFC0120FEF720FBFFF7C4FF832080006E
:102EA0001B4E315C02220A4332547B2080003018D2
:102EB0002024214601F024FF8D208000351828466B
:102EC000FDF7A4FC85208000361830462946FDF722
:102ED000BFFC30462146FEF72BFB28462146FEF775
:102EE0005BFB0C4D7D4428462146FEF721FB28461E
:102EF0002146FEF731FB084D7D4428462146FEF76A
:102F000017FB28462146FEF727FB0920000370BD6A
:102F100080190020104600001C46000080B50120EA
:102F2000FEF7DAFAFFF77EFF8320800003490A5C90
:102F3000FD2313400B540920000380BD801900209D
:102F400080B5FFF76FFF002080BD000070B5052041
:102F500085010B4E02207051FEF772FC04460020E2
:102F6000FEF7BAFA601E022806D274512046FEF718
:102F70003BFB0920000370BDD520C00100F0AFFF6E
:102F80008019002070B505208601224DA85901281E
:102F900016D16879012813D11F482918BD20C00017
:102FA0002C182046FDF7A3F92046FDF7DDF91B4854
:102FB0002818FDF7D9F9012080022818FDF786F9B5
:102FC00001208002281869892A89521A69180E314D
:102FD000FDF782F9A859012814D16879012811D187
:102FE000FEF72EFC0E482918688928180E300F228B
:102FF000FDF7DFFF0120FEF76FFA0024204600F006
:1030000089FA04E00120FEF767FA0920040320464C
:1030100070BDC046801900205406000074060000F0
:1030200008080000F0B5AFB0FEF70AFC0290784F38
:10303000B878022802D1FEF703FC00E000202EA998
:103040000870788904900026202530462946FEF72E
:10305000FDFA7C8930462946FEF7F8FA26A829466B
:10306000FEF710FB1EA82946FEF7F0FA0EA8294627
:10307000FEF7ECFA16A82946FEF7E8FA0396304662
:10308000FEF72AFA4F20800005903858032630407A
:10309000022801D1082506E00120800238180EA977
:1030A0002A46FDF719F901208002381816A92A4688
:1030B000FDF712F905208001385809210D03012878
:1030C00000D09BE0019538460E300499421804194F
:1030D0002EA8007800280BD1002000904D48381809
:1030E0000299CBB2114615462246FFF78FFD2A46BC
:1030F000B878022818D1BD20C0003D1804942024BF
:10310000284611462246FDF7E7F82846049922464C
:10311000FDF7E2F82EA901222846FDF7DDF826A9E1
:1031200028462246FDF7D8F805983B58334016ACA0
:103130000EAD26AA20462946FDF702F806A8294624
:10314000FDF786FB2021204601F088FE002805D0EF
:1031500026A806A9202200F08EFE09E026AC16A9BA
:103160002046FDF76FFD06A920462246FDF73BFCF1
:103170001EA826A9202200F09DFE0028019D40D116
:1031800026483E181EA920223046FDF7A5F80598CE
:10319000385C00061AD4B87802280ED1BD20C000D1
:1031A00038180EAC2146FDF7A2F81D483918202228
:1031B000204600F07FFE002826D137204001391834
:1031C0003046FDF794F83046FDF7CEF816A8FDF727
:1031D000B2FE02460A4311D0124ABA180F23FDF775
:1031E0003BFE2EA80078002804D0039D284600F05E
:1031F0009FF903E00025284600F0C2FA28462FB0C8
:10320000F0BD054800F06BFE0348C01C00F067FEEF
:103210008019002084070000116900007406000076
:103220005406000008080000F0B59BB04F20800055
:10323000324F385C000643D40520800138580128FD
:103240000ED12F48381803AC2146FDF750F837202F
:10325000400139182022204600F02CFE002849D1D8
:103260000125A8023C1803A902912046FDF73FF86A
:1032700013AF202638463146FEF7E8F90BA8019037
:103280003146FEF7E3F92846FEF726F92046FDF71A
:103290001DF8204639463246FDF71EF820460299B1
:1032A0003246FDF719F8204601993246FDF714F829
:1032B000B520C000114909182046FDF718F815E09F
:1032C00003AC202520462946FEF7C0F901263046EA
:1032D000FEF702F9B002381821462A46FCF7FCFF37
:1032E0000748381821462A46FCF7F6FF0920000354
:1032F0001BB0F0BD034800F0F2FDC046801900206D
:103300007406000013690000F0B5A5B0404D68894F
:1033100003900024202620463146FEF797F92046E8
:103320003146FEF793F96889029020463146FEF750
:103330008DF96889019020463146FEF787F96F893B
:1033400020463146FEF782F91DA8FEF7FBF920461C
:10335000FEF7C2F80120C00228180490FDF756FAC3
:103360000720000228182C460E3403996118039098
:10337000324600F080FD392040012818E11932461C
:1033800000F079FD029824184F208000285CC007C7
:1033900004D115A80499FDF75BFA06E001982918F5
:1033A0000E3115A8049AFDF765FB1D208001281831
:1033B00015AF20263946324600F05DFD38462146DD
:1033C000049AFDF757FB3B20400128183946324646
:1033D00000F051FD0DAD802228460399FCF7C8FF8F
:1033E0001DAA38462946FDF707FD05AC204604997D
:1033F0003A46FDF7D1FC28463146FEF799F82046BB
:103400003146FEF795F80920000325B0F0BDC0460F
:1034100080190020F0B59DB015AE202101913046F5
:10342000FEF714F90DAF3846FEF78CF902A8082113
:10343000FEF70CF900242046FEF74EF804AD2846AE
:1034400031463A46FDF730FA8D20019968540097CD
:103450004B20C0000B490918062021232A46FCF7FF
:1034600053FF02A8015D0DAA125D4A400255641C7B
:10347000082CF6D102A80821FEF75AF8092000030B
:103480001DB0F0BD8019002080B50B49884202D1E3
:103490000920000302E0FFF753FD0848FEF7B8F8E3
:1034A0002020FEF7DFF9002005497944054A7A44D7
:1034B00003F026FB80BDC046CEAC00008269000050
:1034C000A24E00001B0900000A4A7A44904203D031
:1034D000094A7A44904206D14878222803D1034809
:1034E000034A1018C86108467047C0460808000023
:1034F00080190020FE4600006647000080B50349A1
:103500007944034A7A4403F0FBFA80BD4C4E000034
:10351000C508000080B5002003497944034A7A4475
:1035200003F0EEFA80BDC046AE460000A7FFFFFFE5
:1035300080B5002003497944034A7A4403F0E0FA55
:1035400080BDC046024700008BFFFFFF80B5012011
:1035500002497944002203F0D3FA80BDCA4B00002F
:1035600080B5FEF7BDF9002003497944034A7A4447
:1035700003F0C6FA80BDC046E24D00005B080000C3
:10358000B0B50C46816818291AD8054660782128FC
:1035900009D10C4801F078FBA96814224A4380182D
:1035A0004A30E061607822280AD1172908D80548F6
:1035B00001F06AFBA96814224A4310185E30E061EA
:1035C0002046B0BD0087D0C080B5002003497944B3
:1035D000034A7A4403F094FA80BDC046DA460000FC
:1035E000ABFFFFFF80B50B49884202D109200003E1
:1035F00002E0FFF7A5FC0848FEF70AF82020FEF7D6
:1036000031F9002005497944054A7A4403F078FAF3
:1036100080BDC046CEAC000082690000464D00006F
:10362000BF070000F0B581B00C4654497944884288
:103630002CD00A461C32904230D00A463832904292
:103640003AD00A46543290424DD00A4670329042E7
:1036500061D08C3188427AD1072630023D4F3D1827
:1036600000218422284600F01CFC6078212806D125
:10367000394839180B22284600F0FDFB60782228D3
:1036800064D136483918284632465DE060782228F1
:103690005DD139482F490818E06158E06078222848
:1036A00055D1072000022B4E3518002184222846D0
:1036B00000F0F7FB2F4844E007200002254E3518A4
:1036C00000218422284600F0ECFB6078212806D1F6
:1036D000264831180B22284600F0CDFB60782228BE
:1036E00034D123482DE0072000021A4E351800215E
:1036F0008422284600F0D5FB6078212806D11A489C
:1037000031180B22284600F0B6FB607822281DD124
:103710007B20000115E0072000020E4E3518002125
:103720008422284600F0BDFB6078212806D10C4891
:1037300031180B22284600F09EFB6078222805D124
:10374000084831180B22284600F095FBE561204619
:1037500001B0F0BD80190020D1070000DC07000097
:10376000BB070000C6070000A50700008F07000088
:103770009A070000840700000808000020480000A5
:1037800080B5002003497944034A7A4403F0B8F92C
:1037900080BDC046C646000097FEFFFFF0B581B071
:1037A0002C2100912B4F052078546420032139549B
:1037B0002948784429497944B962294979443963C7
:1037C00078633C46643400266660204601F0F8FBCE
:1037D0000425284601F066FC606000F0BFFC00F0A4
:1037E000BFFCFE84284601F05DFC6060009C002860
:1037F0002DD097282BD0B86A002828D0F88C395DB6
:1038000080B2884223D201F019FC00281FD101F0B8
:10381000A1FBAA2803D101F0C7FBAA2817D1B86AD7
:10382000F98C49014018396B002902D088470028DB
:1038300007D0012803D1B86AF98C4901401800F07B
:10384000E7FCF88C401CF884B96A0029D7D101B094
:10385000F0BDC04680180020AF0000009247000075
:1038600025010000B0B588B0054600242046FDF7CC
:1038700033FE68462022214600F013FB13488542A0
:1038800007D0134885421ED168462021FDF750FE1F
:1038900007E02D20C0000F4908182021FDF748FE41
:1038A0000D4C512080000B490C5009200003FDF7FE
:1038B000AFFE2020FDF7D6FF002008497944084AD2
:1038C0007A4403F01DF9002008B0B0BD020000806A
:1038D0000100008080190020EFBE01C0904A000066
:1038E0000905000010B5407802280AD0012813D13C
:1038F000072210020E4908180E49794403F086FB8E
:1039000014E0072000020A4908180B4979440CC941
:103910000CC00978017009E007200002044908186A
:10392000064979441CC91CC009880180012010BDCA
:10393000801900204D410000DC460000D246000006
:1039400080B500F065FC80BD80B5C0B2FDF7BAFC63
:10395000FDF794FC002003497944034A7A4403F0BC
:10396000CFF880BDF44900006D040000F0B581B0CF
:103970000C46064607200002204F3D1800218422F5
:10398000284600F08EFA20487844014638318E42AD
:1039900012D0014654318E421AD0703086422AD15C
:1039A0006078202827D1164801F06EF9007A0028A7
:1039B00021D11849794416E0607820281BD110489D
:1039C00001F062F9007A012815D1104979440AE022
:1039D000607820280FD10A4801F056F9007A0228B1
:1039E00009D10B4979440E22284600F044FA0548D3
:1039F0002B213954E561204601B0F0BD801900202B
:103A00000087D0C00D0700007C460000D0400000B9
:103A1000C74000000641000080B503497944034ACD
:103A20007A4403F06DF880BDE845000049FFFFFFD0
:103A300010B582B000240194084801F025F901A9CD
:103A4000042201F04FF9FDF719FC05497944054AB4
:103A50007A44204603F054F802B010BD0087D0C06D
:103A60000049000079030000B0B50D4D0D4C605DBC
:103A7000002806D009200003FDF7CAFD2020FDF72D
:103A8000F1FE094900206050605541214901605014
:103A900006497944064A7A4403F032F8B0BDC0467C
:103AA0001F0800008019002024080000BA48000008
:103AB00033030000F0B581B00C46A0497944884238
:103AC0002DD00A461C32904242D00A4638329042EB
:103AD00061D00A46543290427DD00A4670329042FC
:103AE00000D18FE00A468C32904200D1B4E0A83178
:103AF000884200D0F2E007263002834F3D180021B3
:103B00008422284600F0CDF96078212800D0EEE02C
:103B10007E48385C532800D1E3E03246E2E00725D6
:103B20002802794F3E1800218422304600F0B9F96E
:103B30006078212800D085E07448385C512842DC48
:103B4000002801D051287BD17D497944042274E0BA
:103B5000072000026C4E351800218422284600F010
:103B6000A0F96078212800D09AE06848305C0146CE
:103B70005139022905D3532800D189E0002800D00B
:103B80008CE04120400133588421704A7A44284611
:103B900000F07EFE82E0072000025B4E3518002117
:103BA0008422284600F07DF96078212806D15F48FC
:103BB00031180B22284600F05EF96078222800D0E8
:103BC0008BE05B485EE0522834D0532838D15D4901
:103BD00079440A2231E0072000024B4E35180021BB
:103BE0008422284600F05DF96078212806D14D48EE
:103BF00031180B22284600F03EF9607822286CD15B
:103C000049483FE0072000023F4E3518002184223A
:103C1000284600F046F96078212807D17B20000172
:103C200031180B22284600F026F96078222854D15A
:103C30003B4827E0474979440322304600F01BF90E
:103C4000E6616078222849D13F49794430462A46C6
:103C500000F011F9E66141E0072000022A4E351814
:103C600000218422284600F01CF96078212806D122
:103C7000294831180B22284600F0FDF860782228E8
:103C80002BD1264831180B22284600F0F4F824E006
:103C9000284831180822284600F0EDF8E5616078E0
:103CA00022281AD11948305C01465139022903D320
:103CB00053280AD000280FD11F4833588421244AA2
:103CC0007A44284600F0E4FD06E083200001311824
:103CD0000822284600F0CFF8E561E561204601B0F2
:103CE000F0BD0B220A483918284600F0C4F8607865
:103CF0002228F2D10548385C5328EED105483918FE
:103D000028463246C1E7C046801900201F0800003F
:103D1000DC070000E7070000C6070000D10700002D
:103D2000BB0700009A070000A507000084070000F9
:103D30008F070000280800002408000094470000B6
:103D40002F400000B23F0000433F00000940000048
:103D5000DF3E0000483F000080B503497944034A34
:103D60007A4402F0CDFE80BDF444000051FDFFFF17
:103D700070B582B00446002500950E480E4E3018EE
:103D80003121C90071183522D200B2182B46FEF736
:103D90003DFF0A4835504120400135500848355410
:103DA00008497944084A7A44204602F0A9FE02B044
:103DB00070BDC04684070000801900202408000060
:103DC0001F080000AE4400000BFDFFFFF0B581B0FE
:103DD0000C461B497944884226D16078222823D199
:103DE00007200002124F3D18002684222846314643
:103DF00000F057F800963120C00039183520C00077
:103E00003A1828463346FEF701FF0A4838182E2193
:103E1000022200F046F808483818084979180522A7
:103E200000F029F82E73E561204601B0F0BDC046D0
:103E30008019002005070000070700005A0700004E
:103E40007845000080B5002006497944064A7A4446
:103E500002F056FE7D20C0000149C86380BDC04607
:103E600080180020024500007BFFFFFF80B5002086
:103E700001F00CF980BDB0B5884208D9002A0FD0F6
:103E8000491E401E8B5C8354521EFBD108E0002A61
:103E900006D000239CB20D5D05555B1C521EF9D166
:103EA000B0BD80B5002A04D00B4611461A4603F077
:103EB000B5F880BDB0B5401E491E002A0AD0551E77
:103EC0008B5C845C9C422A46F7D09C4204D800203C
:103ED000C04302E0002000E00120C0B2B0BD0446B3
:103EE00001F0C8F8214603F0AFF9000080B501F0F9
:103EF000A5F8002800D080BD064800210171C170DE
:103F000002228270417060210170052101F08AF85F
:103F100080BDC04600180020B0B51A48C0780328FC
:103F200007DC01280DD0022828D1174802F00AF832
:103F3000B0BD04281FD0082820D1134802F000F893
:103F4000B0BD114C0121204601F0F5FF204601F0E3
:103F5000D4FF0E4CA079002811D120460C3000254A
:103F600004222946FFF79DFF1034082220462946E7
:103F7000FFF797FFB0BD044801F0E0FFB0BD10208F
:103F8000FFF7ADFF00180020EC2300202C230020B9
:103F90007F210140032903D802484018007B704765
:103FA000002070472C23002080B515480179042992
:103FB00017D0022906D0012920D1811D124801F015
:103FC000AEFE80BDC2787F211140032916D84A0079
:103FD0000C4B9A1800231382821D0B4801F021FF1D
:103FE00080BDC2787F211140032907D8054A5218A5
:103FF00043791373821D044801F0BFFE80BDC046A3
:10400000001800202C230020EC23002070B5FF2A8C
:104010001DD815460E4604460D48427120210171F7
:104020005021017080212143C170D11C8170090A87
:104030004170062100F0F6FF3046294600F0F2FFFD
:104040006006000E034908187D210901018270BD38
:10405000001800202C23002080B50A46014682204B
:104060001423FFF7D3FF80BD80B50B4801780029EA
:1040700000D080BD062181710A21017007498A782C
:104080004B781B029A187D2A00D37D224280C91CDE
:104090000348FFF7F0FE80BD2C230020001800200D
:1040A000D821002080B51E4988784A78120210185D
:1040B00009780F2908DC0E290DD00F291ED10128FF
:1040C00022D1FFF729FF23E010291BD0162915D193
:1040D000FFF7CAFF1CE01348816864318160162134
:1040E000425A002A07D0642A134600D36423D21A06
:1040F000425212040ED0891E0E29F1D10220FEF781
:1041000095F980BD032801D2002080BDFFF74CFF48
:10411000012080BD002101701020FFF7E0FEC046A5
:10412000001800202C230020B0B50A2000F0C4FDA8
:10413000084C0025182220462946FFF7B2FEA5604C
:10414000A5716580257000F017FB03480560456088
:10415000B0BDC0462C23002044230020704700003F
:1041600002480021016041607047C046442300209E
:10417000F0B589B00546084600F086FD002843D01A
:104180000446006900283FD0284600F07DFD014626
:1041900002AD1C2228460192FFF76DFE2168E980DE
:1041A00062682A81A068194F65233E463B7089B238
:1041B00092B24A4342435107D208002900D0521C10
:1041C000009204278740B8181D30B070000A707044
:1041D0000321304600F026FF2846019900F022FF17
:1041E000A06830700121304600F01CFFE06800F04C
:1041F0004BFDB9B200F016FF009885B2206900F0BF
:1042000043FD294600F00EFF09B0F0BD0018002064
:1042100070B500F039FD0446067800F00FFF002865
:1042200031D17F2006402ED0E06900281DD000F05B
:104230002BFD0546052E02D1A07E002824D028465D
:1042400003F010F8064613486521017031461C3111
:104250008170090A4170032100F0E4FE1C21204610
:1042600000F0E0FEB1B228460BE00A481C2585703C
:104270000021417065210170032100F0D3FE20462A
:10428000294600F0CFFE70BD20462946FFF770FF9B
:1042900070BDC0460018002070B5002825D00B4620
:1042A0000246124C03CC083C984201D1491C616083
:1042B0001843002B02D02060054605E0002525604C
:1042C00065600B4E761C30439D4201D00023636035
:1042D000082909D3074C4C430123074DAC4201D2B6
:1042E0009C072043DB079843904770BD4423002080
:1042F000FFFFFF7FABAAAAAA56555555F0B581B06E
:104300000F4E01243470B11CFF2750377A1C204611
:1043100000F06EFE054670703A1A8719F91C0220EB
:1043200000F066FEB8702D18AE19F47000F054FE5F
:104330000021B171902171713071E81D01B0F0BDA3
:10434000D8210020F0B58BB00746400708D007976A
:104350000798C0B289B2FEF729FB80B20BB0F0BD5E
:10436000A520400001909A4D984C079710203E469A
:1043700006408AB2002A00D1AAE0002E00D0A7E0B1
:10438000069203910490059600F058FE002808D08C
:1043900080210022204600F05DFE012000F028F977
:1043A000F2E77D200001A9680E18287808281BDD97
:1043B0000928069920D00A285CD10198C01D8142A5
:1043C00000D900E10E460399A17053202070080A1D
:1043D00060700321204600F025FE7F48314600F042
:1043E00021FE0020287060E0072806993FD17C4814
:1043F000784400F033FA55E000217648029101F04C
:10440000A5FA744801F044F8002811D1FFF76EFDB9
:1044100080210022204600F01DFEA868B04200D393
:10442000CBE0FFF73FFE00F009FE0028F0D1E8E7FF
:104430000198069A824200D9C5E0902066498854C6
:104440008818029A4270481D039A921C92B2FFF794
:1044500012FD052260480299FFF723FD0398C01D55
:1044600083B283215B485C4A01F084FA1AE0002899
:1044700000D1A5E00798C0B2FEF798FA002811D045
:104480009EE0FFF733FD80210022204600F0E2FD90
:10449000A868B04200D390E0FFF704FE00F0CEFD24
:1044A0000028F0D128780028EBD10020A8712870CE
:1044B0006880B90600D550E7FFF718FD3806059E5D
:1044C000049805D5089008AA444B1846114601DF08
:1044D000002E04D178066BD40020A87128703E4FBE
:1044E0000020688000F0AAFD002801D1FFF7FEFC43
:1044F000802100262046324600F0ACFD022806D876
:10450000A178627812025118C91C814208D1FFF7C4
:10451000C9FD688829780029E4D00028E2D002E0AB
:1045200000202870DCE72F49794404223846FFF741
:10453000C1FC002824D02C49794404223846FFF7D6
:10454000B9FC002820D02949794404223846FFF7D5
:10455000B1FC00282FD100F027FDAA281DD1012091
:104560003870B81C402100F011FD7870811C89B2B0
:1045700090227A54C11C89B200267E54011D11E09C
:10458000FFF7BCFE01460DE00020787090203870E7
:104590007F20C043079E064303E085207870692092
:1045A00038700221F7B20796700700D1DEE6CFE639
:1045B0006888401FD1E66888CFE61020FFF78FFC9F
:1045C0000920FFF78CFC0220FFF789FC001800206F
:1045D0002C2300204C230020D8210020BE9A00600C
:1045E00065FCFFFFB03E0000A53E00009A3E0000C3
:1045F00070B5044600F022FD002801D1FFF776FCDB
:104600000B4E8021002530462A4600F023FD3078ED
:10461000152806D8012181400648014201D0002C0E
:1046200004D1FFF73FFD0546401E8541284670BD79
:104630000018002020702000F0B581B000920446E0
:10464000464EB14210D00F46444D00214026284628
:104650003246FFF726FC009A402A00D3324628460D
:104660003946FFF708FC3D4EB07801280ADC0028E7
:1046700025D0012860D1F01C042100F041FB40212D
:10468000304628E0022824D0052855D13079F17829
:1046900009020818324C21680027884253D120684B
:1046A00000281BD00098401F85B22E480168A942FF
:1046B00001D2006885B22C480068711D2EE0F01C04
:1046C000002704223946FFF7ECFB40213046A04783
:1046D00039E022484021A047002734E0B0797179C1
:1046E000090209182148016001684908A8292AD847
:1046F00001681C48016071783278120251181C4A16
:10470000116019491B4A0A600099C91F8DB20168DE
:10471000A94201D2006885B2F11D16482A46FFF76A
:10472000AAFB10480168491B01600F48016849193C
:1047300001602068401C20600A480068002801D001
:10474000012707E0022706480021016006480160B2
:1047500004480160384601B0F0BDC04690230020F7
:10476000D0230020D8230020DC230020D4230020E5
:10477000E0230020D82100200348002101600348E5
:104780000160034801607047D0230020DC23002033
:10479000D8230020F0B581B02A4F3A682A4C21680E
:1047A00000291ED0002A1CD000902A4D0021402252
:1047B0002846FFF776FB0520A87027480168090AFC
:1047C000297000686870214B1868000AE870186842
:1047D00028711968206800290BD03B280DD93B2689
:1047E0000CE01A480021016039601948017021600D
:1047F00026E039280AD9392609E026683968681D73
:104800003246FFF738FB009A10490DE02668206811
:10481000000A68712068A8713968E81D32461D4693
:10482000FFF729FB2946009A2068801B2060386822
:10483000801938600868401C08600648402190478D
:1048400001B0F0BDDC230020D8230020D0230020BD
:104850002C23002090230020E023002080B5002995
:104860000BD0064A00231360054A1160054A064B27
:104870001360064A1160FFF78DFF80BDD023002032
:10488000D8230020DC230020D8210020D4230020BE
:1048900081B0F0B58EB01393022900D2E6E1002872
:1048A00000D1E3E11446002A00D1DFE10D460646BF
:1048B00002F0A6FB13A809902178002900D1D5E1C8
:1048C00030466A1E164605460027C8B2002805D0A5
:1048D000252803D0E01941787F1CF6E7B7423A4615
:1048E00000D3324608922846214602F093FB089BEB
:1048F000F21A00D1BAE1E818E15CE418252900D0E9
:10490000ABE104920190631C0022202006900A2053
:10491000009003920292079205951C46104621785A
:10492000641C00222D29F9D047291BDC2F292CDDFE
:104930000A46303A0A2A00D356E13029069A00D1B5
:104940000A463546079B002B00D0069A0A23079E8D
:1049500073435918303907912346069202462E4672
:10496000059DDAE76729049A07DC62293FDC4829BC
:1049700000D0A0E00121029104E072291CDC68292A
:1049800000D09DE01021009119E0252900D118E107
:104990002A29049A1FD02E2900D093E021782A29B1
:1049A00000D05DE16078631C0122482819D0682896
:1049B00017D0732815D055E1732900D084E00999E8
:1049C0000A1D0992C2B20968012A20DD022A234683
:1049D0000246A2D105E12178732900D040E10222EC
:1049E00023460998011D09910068039095E7632902
:1049F00000D1EBE0642965D10998011D0991006897
:104A0000C11742184A40C00F05900A2665E0002AE7
:104A1000039B05D100200A5C401C002AFBD1431EE9
:104A20000098102800D0E2E00393002B0198049A2C
:104A300000D111E1BE42304600D33846821C0692B6
:104A40000190404207900020C043009032460496F7
:104A500007988018022800D208E105950D78029881
:104A6000002804D0012811D18448784401E082480C
:104A7000784408900F232B402D09455D059E019831
:104A8000355435180898C05C6870049E06989042AA
:104A9000059D00D1EAE0491C0398401E921EAD1C02
:104AA00003900028D4D1BE4200D33E46A8190099F5
:104AB00071438A18D0E0582904D10120029005E002
:104AC000702903D00198C7E07829FBD10998011D0E
:104AD000099102680020059010269642089201D99B
:104AE000012712E0012530460746314602F0B2F8B0
:104AF000A84209D1304678430799491E0791089981
:104B000088423D46F0D900E02F460798059A811A61
:104B10000023002A08D00698C0B2302806D10AA87F
:104B20002D220270012503E01D4601E01D46059B74
:104B3000881E0D2811D80AA84019491E069AD2B21B
:104B4000069302F06BFA069B07980599081A401C19
:104B5000411C6D1C81420846FAD2002B03D00AA8E2
:104B60002D2141556D1C0298002F1AD0002802D02B
:104B70004448784401E04248784407900898394610
:104B800002F068F8314602F0EBF80798405C0AA999
:104B900048553846314602F05DF86D1CBE42074666
:104BA000ECD90498854200D305460AA9019E3046F7
:104BB0002A4602F02FFA049A521B57D03046701939
:104BC0004AE0252001990870049A05E00998011D22
:104BD0000991006801990870521E47D00846481C88
:104BE0003AE00878002814D00198049A34E0049838
:104BF00083421A4601D3024603461E4601981546D3
:104C000002F008FA2B46049A0198521B079912D118
:104C10002CE00498039D854200D305462022019E86
:104C20003046294602F0FAF9049A30462E46521BC5
:104C30000799089B1AD0801999420DD9CD1A95422F
:104C400000D31546174620220646294602F0E6F90B
:104C50003A467A1BB2D109E02178002906D031E624
:104C60000198FAE72A210198049AF6E700200EB08D
:104C7000F0BC02BC01B00847773900008D39000054
:104C80006F3800008538000080B50449884204D39D
:104C90000349884201D200F005F880BD0000D0C071
:104CA0008089D0C07A460249C91C891A401A7047C7
:104CB000A54CD0C001DF704780B584B00190034897
:104CC00001A9FFF7F7FF04B080BDC04637010060BF
:104CD00080B582B002486946FFF7ECFF02B080BDA4
:104CE0003C02006080B586B00190029103920348B7
:104CF00001A9FFF7DFFF06B080BDC0467F0300605B
:104D000080B584B00090019103486946FFF7D2FF57
:104D1000019804B080BDC0462C05006080B588B005
:104D200000900191029203930A9804900B980590C9
:104D300003486946FFF7BEFF019808B080BDC04632
:104D40003B07006080B584B00190034801A9FFF7DC
:104D5000B1FF029804B080BDDB0A006080B584B06A
:104D60000090019103486946FFF7A4FF019804B041
:104D700080BDC046CF10006080B588B00090019122
:104D8000029203930A9804900B9805900348694691
:104D9000FFF790FF019808B080BDC0462B1A006055
:104DA00080B586B0019002910392034801A9FFF7F4
:104DB00081FF029806B080BD2B1F006080B588B0CF
:104DC00001900291039204930A980590034801A967
:104DD000FFF770FF029808B080BDC046172B006037
:104DE00080B588B001900291039204930A980590CF
:104DF000034801A9FFF75EFF029808B080BDC046D6
:104E0000F32C006080B586B00190029103920348B4
:104E100001A9FFF74FFF06B080BDC04659330060BF
:104E200080B586B0019002910392034801A9FFF773
:104E300041FF06B080BDC0463134006080B586B009
:104E4000019002910392044801A9FFF733FF0298F1
:104E500080B206B080BDC0466E92006080B584B05E
:104E60000090019103486946FFF724FF019804B0C0
:104E700080BDC046373E006080B586B0009001918D
:104E80000292039303486946FFF714FF019806B0A6
:104E900080BDC0469F40006080B588B001900291FF
:104EA000039204930A980590024801A9FFF702FFB4
:104EB00008B080BDA642006080B588B00190029124
:104EC000039204930A980590024801A9FFF7F2FEA5
:104ED00008B080BD7D43006080B588B0019002912C
:104EE000039204930A980590024801A9FFF7E2FE95
:104EF00008B080BD4544006080B588B00090019145
:104F0000029203930A9804900B9805900248694610
:104F1000FFF7D0FE08B080BD4D45006080B586B07B
:104F2000009001910292039302486946FFF7C2FE86
:104F300006B080BD4546006080B586B00090019106
:104F40000292039302486946FFF7B4FE06B080BDA3
:104F5000E947006080B582B003486946FFF7AAFEC2
:104F60000198C0B202B080BD4F9F006080B588B08C
:104F700001900291039204930A980590024801A9B6
:104F8000FFF798FE08B080BDBA53006080B584B0CA
:104F90000090019103486946FFF78CFE019804B028
:104FA00080BDC046FCA8006080B582B00348694659
:104FB000FFF780FE0198C0B202B080BD3CA0006047
:104FC00080B584B00190034801A9FFF773FE0298F1
:104FD00004B080BD5864006080B582B00348694663
:104FE000FFF768FE019802B080BDC0466E6A00609F
:104FF00080B586B0019002910392034801A9FFF7A2
:1050000059FE029806B080BDD474006080B584B0AB
:105010000190034801A9FFF74DFE04B080BDC046D2
:10502000BE9A006080B584B0009001910248694644
:10503000FFF740FE04B080BD8183006080B582B080
:1050400003486946FFF736FE019802B080BDC046AE
:10505000BB84006080B586B0019002910392044841
:1050600001A9FFF727FE029880B206B080BDC046B6
:10507000E485006080B582B003486946FFF71AFEF8
:10508000019802B080BDC046B187006080B584B091
:105090000190034801A9FFF70DFE029804B080BDFE
:1050A0007588006080B584B00190044801A9FFF7BD
:1050B00001FE0298C0B204B080BDC0468B9C006067
:1050C000F0B583B0044635480078002803D083212A
:1050D000344A7A4447E00898452803D88321324A65
:1050E0007A4440E0072903D18321304A7A443AE0E8
:1050F0001D4602901846403001900678002E18D0C8
:10510000052E08D128464130294979440522FEF769
:10511000D1FE00282DD0284641300021254A7A446E
:10512000435C03270F40D75D5F404754491C8E42C4
:10513000F6D10198407946300299884210D1413524
:10514000174829463246FEF796FE07201349887114
:105150004E80092008700121204600F0F7FB06E090
:105160008321154A7A440223204600F003FC03B051
:10517000F0BD0B4D04262E70681C10497944324650
:10518000FEF779FE681D0E4979443246FEF773FE3C
:105190002878431D832120462A46E6E72C23002059
:1051A000D8210020373300002B33000021330000CA
:1051B00005330000F7320000BB32000099320000D6
:1051C00092320000F0B581B01D460E4604461846E6
:1051D00000F0B0FB00280ED02068C11C090A6A4606
:1051E0009170811C090C5170411C090E1170001D39
:1051F0002060D07004E0684604222946FEF73BFE9A
:10520000154F082238463146FEF735FE384608303D
:1052100069460422FEF72FFE00203874F87301213E
:10522000B973787302203873284600F083FB014677
:10523000201D002904D0FF210422FEF732FE03E0E6
:1052400069460422FEF717FE8621034A11232046F1
:1052500000F090FB01B0F0BDD8210020F0B583B084
:105260008B794C792402E7188B7802934B780E786F
:105270001546093DACB2A74203D0D21F94B2A74253
:1052800018D13D46002E07D083211B4A7A440223C1
:1052900000F070FB03B0F0BD022B16DC012B21D017
:1052A000022B1BD1AAB20092CB1D00220299FFF75C
:1052B00007FFEFE7ECB2A742E4D0D4B2A74215460D
:1052C000E0D083210D4A7A44E1E7032B0ED0C12BB5
:1052D00004D183210A4A7A440423D9E783210B4A63
:1052E0007A44D4E78321074A7A44D0E78321064AE7
:1052F0007A440823CCE7C046A131000045310000C4
:10530000533100001F310000313100004F310000E7
:1053100080B5C1698A784B781B029B180A78812A6C
:1053200009D0832A0DD0862A0FD1C91C031D002263
:10533000FFF748FF80BDCA1C9BB2812100F01AFB19
:1053400080BDC91C9AB2FFF789FF80BD70B5012AE4
:1053500013D10D460146094C20462A46FEF78BFD27
:1053600060194026721B00252946FEF79AFD812010
:10537000214632462B46FEF749FE70BD90230020A1
:1053800000238376C3820282C16043858384C16126
:1053900003627047F0B581B00D4604462A20215CB7
:1053A0002046203001291AD000290FD10021C172D6
:1053B0000178C91EC9B2012913D8218BE28A914212
:1053C00011D9A07E00281AD0012319E041790629BD
:1053D00005D1C17A0022C272002902D1E8E700217A
:1053E000C17201B0F0BDFCD10021A176E182418102
:1053F00001608180E068E06123480170F1E70323E8
:105400006E1E77427741BE009E1940239F1B334694
:10541000891AB94200DC0F46012D09D1211D1B4814
:10542000042632460093FEF726FD009BA07E00E096
:105430000026002801D0401E0AE0204640300078B7
:105440001249885501203043627E0A54461C207E52
:10545000F91800910D4A9055E169002906D0BEB2B5
:10546000D018E38AC9183246FEF705FDE08AC01954
:10547000E082A07E401CA076009881B203482A46B4
:10548000FFF764FFADE7C0462C23002090230020E7
:105490002A21415C00290BD0012907D02530017851
:1054A000062903D18179484248417047002070475E
:1054B00001207047B0B52B2101244454011D0A4D31
:1054C00004222846FEF7D7FC852028726920E8715F
:1054D0000220A871002068718320287109212846C4
:1054E0002246FFF733FFB0BD90230020B0B52B213B
:1054F00001244454011D084D04222846FEF7BBFC3C
:105500000020A8716871882028710721284622464A
:10551000FFF71CFFB0BDC04690230020F0B581B05E
:1055200004462520205C052801D100255EE02646A2
:10553000243608784B781B0218188B78CD782D020A
:10554000EB181B041818237965792D02EB18A5793F
:10555000E7793F027D192D04EB18834249D10B797D
:10556000608C002810D03578AB4242D1258B5B1C73
:1055700033702B1A521F9A4200DB1A46801860843F
:1055800092B2208D491D1BE0882B04D12046FFF7E5
:10559000ADFF01252AE0832B2BD188794B791B02A3
:1055A0001818C01C238B85B2AB4222D1091D80B2D2
:1055B000121F824200DB024662840020307092B2E9
:1055C000FFF73CFC2085218B628C01258A420DD39C
:1055D000E18C88420DD10620707000276784B07975
:1055E000012803D12046FFF765FF7770284601B0F8
:1055F000F0BD052070701020FEF771FCF0B587B08B
:105600001D46044603722020205C26462036234691
:105610004033032802D1C34806215DE00F46B17A2A
:10562000002915D01D4620463946FFF777FF002890
:1056300062D1BC4806210172042131700830E0615A
:105640000020A07601212183E082BF2028704FE056
:10565000042807D10020A076E08270813060B080FD
:10566000E068E061681E414241418900481C904267
:1056700030D80390012D0593069108D1201D049286
:1056800004223946FEF7F7FB0699049A059BE08A47
:1056900000280DD0012D19D120461230211D049271
:1056A0000422FEF707FC0699049A059B00280DD0FA
:1056B000084603210291084390420BD80699785678
:1056C000002838D497480421017207E002200843DB
:1056D000904213D99348852101720421317008301A
:1056E000E0610020A07601212183E082BF201870B4
:1056F000217A2046FFF74EFE07B0F0BD7078A84231
:1057000016D13078012844D1012D4DD1211D04201E
:10571000029038460492029AFEF7CCFB0699049A4E
:10572000059B002840D07F48062101720299D5E7E9
:105730007C488D21D0E778180190012D13D1307865
:10574000012819D1201D2146123104920422009013
:10575000FEF7B0FB049A059B002804D0019800785E
:10576000862800D0BAE03078012805D1012DA9D1D2
:10577000019800788628A5D1039978184078795C3B
:1057800009020F18208AC01E874233DD654802993E
:10579000A2E7012D96D10020A076E08270813060D2
:1057A000B080E068E061A7E7785CA17E884289D19B
:1057B000069839180398171AE08A228B121A974212
:1057C00000DB1746BAB2E3691818491C0692FEF7C7
:1057D00052FB012D07D1E08AE1690918E08C069A95
:1057E000FFF72CFBE084E08AC019E082A07E401C19
:1057F000A0764FE001980078812803D086281BD03E
:1058000083285BD10492012D22D1201D4649794481
:10581000042203900292FEF74DFB002807D0434973
:10582000794404220398FEF745FB002810D13D4837
:105830000B210172029968E0012D3FD10492201DD5
:105840003B49794404220392FEF734FB002858D0E8
:1058500004980699401AFF1CB84200DB38460690AF
:1058600082B2E06901990492FEF705FB012D05D192
:10587000E1690020049AFFF7E1FAE08427830698A3
:10588000E08275700020A07620461230211D04228F
:10589000FEF7F1FA059BE08A012D01D1218B06E08C
:1058A000218BCA1C824202D21E48032114E788427F
:1058B0000ED200206063012030701DE719480121DD
:1058C0000172042232700830E0610020A0760BE7FC
:1058D000022030702046FFF71BFD0DE7114C04221B
:1058E00020460099FEF7C7FA0620E0710122A27156
:1058F00000206071BF20207108212046FFF726FD9F
:10590000FAE608480B210172039931700830E06112
:105910000020A07601212183E082BF200599087034
:10592000E6E6C04690230020232C0000152C000042
:10593000F32B000080B5044979440422FEF7BAFA3B
:105940004142484180BDC046F92A000080B52A2264
:10595000835C02462A32002906D0002B08D101219F
:105960001170FFF7A7FD80BD012B01D1022010703F
:1059700080BD000070B504462A20205C25462035F5
:10598000002807D001281FD0687906281CD1E87AA2
:10599000002819D12046403003262E70E2610022F3
:1059A000A2762383E2820170697803290DD1094E22
:1059B0003078002808D003212046FFF7EBFC307830
:1059C000002801D06978F7E770BD2046FFF7E2FCB8
:1059D00070BDC0462C230020024900200860024907
:1059E00008607047E8230020E423002010B5074832
:1059F0000221C17001218170002444704F21017087
:105A00000421FFF70FFB204610BDC0460018002000
:105A100070B582B06D4600242C710320E87002201E
:105A2000A8706C704F262E7005212846FFF7FAFAF1
:105A30000120E870A8706C702E7004212846FFF7D2
:105A4000F1FA204602B070BD10B582B001A8022163
:105A5000C17001218170002444704F210170042124
:105A6000FFF7E0FA204602B010BD000070B582B02A
:105A7000144800240460144804606D46AC716971D8
:105A8000012028710421E9700526AE706C704F2446
:105A90002C70012A05DC002A0AD0012A0AD1084606
:105AA00006E0022A03D0032A04D1022000E00320EA
:105AB000694688716846C3710821FFF7B3FA002070
:105AC00002B070BDE4230020E823002010B582B0AE
:105AD00068460024C471847141710121017104215F
